:020000040800F2
:1000000000000120A5170008B5060008B906000881
:10001000BD060008C1060008C50600080000000073
:10002000000000000000000000000000C9060008F9
:10003000CD06000800000000D1060008D506000823
:10004000ED170008ED170008ED170008ED17000880
:10005000ED170008ED170008ED170008ED17000870
:10006000ED170008ED170008ED170008ED17000860
:10007000ED170008ED170008ED170008ED17000850
:10008000ED170008ED170008ED170008ED17000840
:10009000ED170008ED170008ED170008ED17000830
:1000A000ED170008ED170008ED170008ED17000820
:1000B000ED170008ED170008ED170008ED17000810
:1000C000ED170008ED170008ED170008ED17000800
:1000D000ED170008DD060008ED060008FD06000823
:1000E000ED170008ED170008ED170008ED170008E0
:1000F000ED170008ED170008ED170008ED170008D0
:10010000ED170008ED170008ED170008ED170008BF
:100110000D0700082D070008ED170008ED1700086F
:10012000ED170008ED170008ED170008ED1700089F
:1001300000000000000000000000000000000000BF
:1001400000000000000000000000000000000000AF
:10015000000000000000000000000000000000009F
:10016000000000000000000000000000000000008F
:10017000000000000000000000000000000000007F
:10018000000000000000000000000000000000006F
:10019000000000000000000000000000000000005F
:1001A000000000000000000000000000000000004F
:1001B000000000000000000000000000000000003F
:1001C000000000000000000000000000000000002F
:1001D000000000000000000000000000000000001F
:0401E0005FF8E0F1F3
:1001E40010B5054C237833B9044B13B10448AFF36D
:1001F40000800123237010BD640100200000000072
:100204004C180008084B10B51BB108490848AFF357
:1002140000800848036803B910BD074B002BFBD0CE
:10022400BDE81040184700BF00000000680100202E
:100234004C180008640100200000000030B591B0A3
:100244002822002106A801F0F7FA00240194029460
:10025400039404940594012206924FF48033079387
:100264000A9202250D950E934FF4E0130F9306A8FE
:1002740000F02CFD0F230193029503944FF4806347
:1002840004930594294601A800F072FF11B030BD13
:1002940008B500F0E1FCFFF7D1FF00F005F800F02D
:1002A4007DF9FEE7704700BF84B0134B9A6942F0B2
:1002B40004029A619A6902F004020092009A9A690F
:1002C40042F008029A619A6902F008020192019AC6
:1002D4009A6942F010029A619A6902F0100202923D
:1002E400029A9A6942F020029A619B6903F0200302
:1002F4000393039B04B070470010024030B591B0E3
:1003040000230C930D930E930F930368874A934233
:1003140031D1874BDA6942F40022DA61DA6902F4F6
:1003240000220192019A9A6942F010029A619B6933
:1003340003F010030293029B4FF480630C93022397
:100344000D9303230F937B4D0CA9284600F0EEFF79
:100354004FF400630C9300240D940E940CA92846CA
:1003640000F0E4FF22462146342001F09DF93420B8
:1003740001F0CCF9D7E0704A934238D16C4BDA697A
:1003840042F48012DA61DA6902F480120392039A69
:100394009A6942F010029A619A6902F0100204927A
:1003A400049A9A6942F020029A619B6903F020033F
:1003B4000593059B4FF480530C9302230D93032361
:1003C4000F930CA95B4800F0B1FF04230C930024A5
:1003D4000D940E940CA9594800F0A8FF224621461A
:1003E400352001F061F9352001F090F99BE0544A81
:1003F400934231D14E4B9A6942F480429A619A6990
:1004040002F480420692069A9A6942F004029A61C2
:100414009B6903F004030793079B4FF400730C9349
:1004240002230D9303230F93464D0CA9284600F095
:100434007DFF4FF480630C9300240D940E940CA95B
:10044400284600F073FF22462146252001F02CF9AE
:10045400252001F05BF966E03B4A93422FD1344BEF
:10046400DA6942F40032DA61DA6902F4003208929D
:10047400089A9A6942F004029A619B6903F00403A2
:100484000993099B04230C9302230D9303230F93D5
:100494002C4D0CA9284600F049FF08230C93002496
:1004A4000D940E940CA9284600F040FF22462146E4
:1004B400262001F0F9F8262001F028F933E0234A38
:1004C400934230D11A4BDA6942F48022DA61DA6954
:1004D40002F480220A920A9A9A6942F008029A6106
:1004E4009B6903F008030B930B9B4FF480630C93FD
:1004F40002230D9303230F93154D0CA9284600F0F6
:1005040015FF4FF400630C9300240D940E940CA972
:10051400284600F00BFF22462146272001F0C4F8AC
:10052400272001F0F3F811B030BD00BF004C0040AB
:10053400001002400010014000500040001401402F
:1005440000380140000801400044004000480040D9
:10055400000C014010B5044600238361C3610268A6
:100564000C4B9A4204D10C4B83624FF47A7383850B
:10057400204600F0B5F910B1FFF794FE10BD2268D3
:10058400D36843F01003D360A28DA16A204600F023
:10059400D9F910BD004C00405009002010B5044C9E
:1005A40003E054F8040BFFF7D5FF002CF9D110BD7C
:1005B4004001002010B582B0044600230193036873
:1005C4001A6801925B680193019B00F0E1FAA28D25
:1005D400A16A204600F0B6F902B010BD704700BF12
:1005E40070B50446284B98420CD1284D4FF47A76C6
:1005F40032460021284601F01FF932462946224896
:1006040000F0A0F9224B9C420CD1224D4FF47A7693
:1006140032460021284601F00FF9324629461C488B
:1006240000F090F91C4B9C420CD11C4D4FF47A768F
:1006340032460021284601F0FFF832462946164882
:1006440000F080F9164B9C420CD1164D4FF47A768B
:1006540032460021284601F0EFF832462946104878
:1006640000F070F9104B9C420CD1104C4FF47A7589
:100674002A460021204601F0DFF82A4621460A488E
:1006840000F060F970BD00BFC000002050090020D8
:10069400000100206805002000000020380D002023
:1006A4004000002020110020800000208001002054
:1006B400704700BFFEE700BFFEE700BFFEE700BFD4
:1006C400FEE700BF704700BF704700BF704700BF20
:1006D40008B500F0D3FA08BD08B5024800F0C0F927
:1006E40008BD00BF0000002008B5024800F0B8F9BA
:1006F40008BD00BF4000002008B5024800F0B0F972
:1007040008BD00BF8000002010B5064C204600F054
:10071400A7F92368DB6813F0100F02D02046FFF717
:1007240049FF10BDC000002010B5064C204600F063
:1007340097F92368DB6813F0100F02D02046FFF707
:1007440039FF10BD0001002082B00E4B9A6942F0BF
:1007540001029A619A6902F001020092009ADA6930
:1007640042F08052DA61DB6903F080530193019B0C
:10077400054A536823F0E06343F00073536002B00A
:10078400704700BF00100240000001400268D368B7
:1007940023F49073D3600268536923F00103536117
:1007A400202380F83A30704790F83930DBB2212B9F
:1007B4002BD18368B3F5805F0FD1036A02681B886D
:1007C400C3F30803536003691BB9036A023303626A
:1007D40009E0036A0133036205E00268036A591CF5
:1007E40001621B785360C38C9BB2013B9BB2C384F0
:1007F4006BB90268D36823F08003D3600268D368BE
:1008040043F04003D360002070470220704700206B
:10081400704700BF10B5044601680B6923F44052C9
:10082400C36813430B61816803691943436919431E
:100834000068C26822F4B05323F00C030B43C36076
:1008440021684B6923F44072A36913434B61226806
:10085400214B9A421FD100F059FD216800EB800022
:1008640000EB800063689B00B0FBF3F01B4BA3FB21
:1008740000246409642202FB140212013232A3FB35
:1008840002235B0903F0F00202EB041403F00F03EC
:1008940023448B6010BD00F029FD216800EB80002B
:1008A40000EB800063689B00B0FBF3F00B4BA3FBF1
:1008B40000246409642202FB140212013232A3FBF5
:1008C40002235B0903F0F00202EB041403F00F03AC
:1008D40023448B6010BD00BF003801401F85EB51DD
:1008E40068B310B5044690F8393013F0FF0F04D103
:1008F400002380F83830FFF701FD242384F83930D1
:100904002268D36823F40053D3602046FFF782FFA4
:100914002268136923F4904313612268536923F016
:100924002A0353612268D36843F40053D360002040
:10093400E063202384F8393084F83A3010BD012074
:10094400704700BF90F83A30DBB2202B20D109B3B6
:1009540012B390F83830012B20D081628285C28591
:100964000023C363222280F83A2080F838300168DB
:10097400CA6842F48072CA6001684A6942F001029E
:100984004A610168CA6842F02002CA60184670478A
:1009940002207047012070470120704702207047F1
:1009A400704700BF08B50168CB6823F04003CB60F3
:1009B400202380F83930FFF7F3FF002008BD00BF83
:1009C40008B590F83A30DBB2222B44D18368B3F5F2
:1009D400805F13D1826A036943B903685B68C3F318
:1009E40008031380836A0233836218E003685B6838
:1009F400DBB21380836A0133836210E0036933B985
:100A0400836A5A1C8262026852681A7007E0826A1A
:100A1400531C836203685B6803F07F031370C38D08
:100A24009BB2013B9BB2C385BBB90268D36823F078
:100A34002003D3600268D36823F48073D360026810
:100A4400536923F001035361202380F83A30FFF700
:100A5400C5FD002008BD022008BD002008BD00BF60
:100A640010B5044602681368D168526913F00F0088
:100A740009D113F0200F06D011F0200F03D0204627
:100A8400FFF79EFF10BD002862D012F0010202D1D0
:100A940011F4907F5CD013F0010F06D011F4807F25
:100AA40003D0E06B40F00100E06313F0040F04D0C6
:100AB4001AB1E06B40F00200E06313F0020F04D0BF
:100AC4001AB1E06B40F00400E06313F0080F04D0A7
:100AD4001AB1E26B42F00802E263E26B002A4AD0E8
:100AE40013F0200F05D011F0200F02D02046FFF79D
:100AF40067FF23685B6903F04003E26B12F0080FA1
:100B040000D1FBB12046FFF741FE23685A6912F079
:100B1400400F13D05A6922F040025A61636B4BB103
:100B2400154A5A63606B00F0F9FC20B3606B436BA9
:100B3400984710BD2046FFF753FD10BD2046FFF730
:100B44004FFD10BD2046FFF74BFD0023E36310BDAE
:100B540013F0800F06D011F0800F03D02046FFF76A
:100B640023FE10BD13F0400F05D011F0400F02D04A
:100B74002046FFF717FF10BD810B000808B5406A37
:100B84000023C385C384FFF72BFD08BD704700BF56
:100B940010B504460268D36823F49073D3600268E6
:100BA400536923F00103536103685A6912F0400F3B
:100BB40017D05A6922F040025A61436B4BB10D4A77
:100BC4005A63406B00F0AAFC90B1606B436B98478A
:100BD4000EE00023C385202380F83A30FFF7D6FFC8
:100BE40006E00023C385202380F83A30FFF7CEFFC8
:100BF400002010BDFD0B000808B5406A0023C38522
:100C0400202380F83A30FFF7C1FF08BD10B5044631
:100C14000E4B18784FF47A73B3FBF0F30C4A106858
:100C2400B0FBF3F000F080FD58B90F2C0BD8002274
:100C340021464FF0FF3000F037FD064B1C600020CA
:100C440010BD012010BD012010BD00BF5C010020BB
:100C5400600100205801002008B5074A136843F0DA
:100C640010031360032000F00DFD0020FFF7CEFFFA
:100C7400FFF76AFD002008BD00200240034A136804
:100C8400034909780B441360704700BF081500201E
:100C94005C010020014B1868704700BF0815002054
:100CA40082B0084B1B68084AA2FB03235B0A00FBC3
:100CB40003F0019000BF019B5A1E0192002BF9D151
:100CC40002B0704760010020D34D6210002800F08C
:100CD400EC8170B582B00446036813F0010F6BD049
:100CE400A84B5B6803F00C03042B0AD0A54B5B688C
:100CF40003F00C03082B0DD1A24B5B6813F4803F67
:100D040008D0A04B1B6813F4003F55D06368002B38
:100D140052D1CCE16368B3F5803F05D1994A136899
:100D240043F48033136026E063B903F1804303F591
:100D340004331A6822F480321A601A6822F480227A
:100D44001A6018E0B3F5A02F0CD103F18043A3F58A
:100D54003C331A6842F480221A601A6842F48032E2
:100D64001A6008E0874B1A6822F480321A601A6805
:100D740022F480221A6063687BB1FFF78BFF05467B
:100D840005E0FFF787FF401B642800F292817D4B4A
:100D94001B6813F4003FF4D00EE0FFF77BFF054619
:100DA40005E0FFF777FF401B642800F28481754B50
:100DB4001B6813F4003FF4D1236813F0020F50D0E2
:100DC400704B5B6813F00C0F0AD06E4B5B6803F03A
:100DD4000C03082B16D16B4B5B6813F4803F11D1C5
:100DE400684B1B6813F0020F03D02369012B40F0FA
:100DF4006481644A136823F0F803616943EAC10318
:100E040013602EE02369D3B101225F4B1A60FFF710
:100E140041FF054605E0FFF73DFF401B022800F2B5
:100E24004E81584B1B6813F0020FF4D0554A1368D7
:100E340023F0F803616943EAC103136011E000225F
:100E4400514B1A60FFF726FF054605E0FFF722FF26
:100E5400401B022800F235814A4B1B6813F0020F35
:100E6400F4D1236813F0080F29D0A369ABB1012290
:100E7400464B1A60FFF70EFF054605E0FFF70AFF31
:100E8400401B022800F21F813E4B5B6A13F0020FE5
:100E9400F4D00120FFF704FF11E000223B4B1A605D
:100EA400FFF7F8FE054605E0FFF7F4FE401B0228B5
:100EB40000F20B81334B5B6A13F0020FF4D1236809
:100EC40013F0040F00F08B802E4BDB6913F0805F6E
:100ED4000BD12C4BDA6942F08052DA61DB6903F002
:100EE40080530193019B012500E00025284B1B68DA
:100EF40013F4807F13D1264A136843F4807313607C
:100F0400FFF7C8FE064605E0FFF7C4FE801B642811
:100F140000F2DD801E4B1B6813F4807FF4D0E3687D
:100F2400012B05D1174A136A43F00103136222E02F
:100F340063B903F1804303F504331A6A22F0010212
:100F44001A621A6A22F004021A6214E0052B09D10B
:100F54000C4B1A6A42F004021A621A6A42F0010245
:100F64001A6208E0074B1A6A22F001021A621A6A2E
:100F740022F004021A62E368D3B1FFF78BFE06463F
:100F840010E000BF001002400000424280044242D0
:100F940000700040FFF77EFE801B41F288339842C8
:100FA40000F29780544B1B6A13F0020FF2D010E04A
:100FB400FFF770FE064607E0FFF76CFE801B41F268
:100FC4008833984200F287804B4B1B6A13F0020F60
:100FD400F2D125B1484AD36923F08053D361E36940
:100FE400002B7AD0444A526802F00C02082A4CD0F2
:100FF400022B37D10022414B1A60FFF74BFE054606
:1010040004E0FFF747FE401B022868D83A4B1B68F0
:1010140013F0007FF5D1236AB3F5803F06D136493A
:101024004B6823F40032A36813434B60324843688F
:1010340023F47411236A626A13430B43436001224D
:101044002E4B1A60FFF726FE044604E0FFF722FE4B
:10105400001B022845D8284B1B6813F0007FF5D0ED
:10106400002047E00022254B1A60FFF713FE0446D8
:1010740004E0FFF70FFE001B022834D81E4B1B6848
:1010840013F0007FF5D1002034E0012B2DD01A4B52
:101094005B6803F48031226A914228D103F470130F
:1010A400626A934225D0012024E001207047012088
:1010B40020E003201EE003201CE001201AE00320AE
:1010C40018E0032016E0032014E0032012E00320BC
:1010D40010E003200EE003200CE000200AE00320CF
:1010E40008E0032006E0032004E0012002E00120E0
:1010F40000E0002002B070BD0010024060004242D7
:1011040030B486B0164D02AC28686968AA68EB68EA
:101114000FC42B8AADF80430124B5B6803F00C0249
:10112400082A19D1C3F3834206A90A4412F8100C01
:1011340013F4803F0CD00B4B5B68C3F340430B4468
:1011440013F8142C084B03FB00F0B0FBF2F004E09E
:10115400064B03FB00F000E0034806B030BC7047C8
:10116400641800080010024000127A0000093D00D3
:10117400002800F09D8070B50446544B1B6803F0B2
:1011840007038B420BD2514A136823F007030B4326
:101194001360136803F00703994240F08B802368BF
:1011A40013F0020F17D013F0040F04D0484A536809
:1011B40043F4E0635360236813F0080F04D0444AF7
:1011C400536843F4605353604148436823F0F0028A
:1011D400A368134343600D46236813F0010F2ED018
:1011E4006268012A05D13A4B1B6813F4003F0DD104
:1011F40062E0022A05D1364B1B6813F0007F05D14B
:101204005CE0334B1B6813F0020F59D030494B6834
:1012140023F0030313434B60FFF73CFD064606E04F
:10122400FFF738FD801B41F2883398424AD8284B97
:101234005B6803F00C036268B3EB820FF0D1234BBD
:101244001B6803F007039D420AD2204A136823F067
:1012540007032B431360136803F007039D4233D144
:10126400236813F0040F06D019494B6823F4E06295
:10127400E36813434B60236813F0080F07D0144A44
:10128400536823F46053216943EAC1035360FFF7B1
:1012940037FF0F4B5B68C3F303130E4AD35CD8408C
:1012A4000D4B18600D4B1868FFF7B0FC002070BDA3
:1012B40001207047012070BD012070BD012070BD68
:1012C400012070BD032070BD012070BD00200240CC
:1012D4000010024078180008600100205801002026
:1012E400014B1868704700BF6001002008B5FFF784
:1012F400F7FF044B5B68C3F30223034AD35CD84073
:1013040008BD00BF001002408818000808B5FFF7A8
:10131400E7FF044B5B68C3F3C223034AD35CD840A2
:1013240008BD00BF0010024088180008F0B583B063
:1013340000263446DEE00122A24013409A4240F0E7
:10134400D8804D68122D2DD00BD8022D27D003D86C
:101354005DB3012D1ED035E0032D30D0112D1BD0EF
:1013640030E0684FBD4220D008D8A7F58017BD42B1
:101374001BD007F58037BD4224D116E0624FBD4231
:1013840013D007F58037BD420FD0A7F58017BD42B3
:1013940018D10AE0CE6815E0CE68043612E0CE68B3
:1013A40008360FE0CE680C360CE08D684DB1012D87
:1013B40002D10261082605E04261082602E0002607
:1013C40000E00426FF2B01D8864601E000F1040E5C
:1013D400FF2B01D8A20002E0A4F108029200DEF87B
:1013E40000700F25954027EA050506FA02F22A4304
:1013F400CEF800204A6812F0805F7AD0434A95699B
:1014040045F001059561926902F001020192019A89
:10141400A708BD1C3E4A52F825E004F003029200DE
:101424000F2595402EEA050E3A4DA84215D005F534
:101434008065A84213D005F58065A84211D005F552
:101444008065A8420FD005F58065A8420DD005F54A
:101454008065A8420BD105250AE0002508E0012596
:1014640006E0022504E0032502E0042500E0062549
:1014740005FA02F24EEA02020237254D45F827200A
:101484004A6812F4803F05D005F580652A681A433E
:101494002A6004E0204D2A6822EA03022A604A688E
:1014A40012F4003F04D01C4D6A681A436A6004E0D9
:1014B400194D6A6822EA03026A604A6812F4801FBE
:1014C40004D0154DAA681A43AA6004E0124DAA6814
:1014D40022EA0302AA604A6812F4001F04D00E4DE7
:1014E400EA681343EB6004E00B4DEA6822EA030365
:1014F400EB6001340B6833FA04F27FF41CAF03B0E1
:10150400F0BD00BF000021100000311000100240A7
:1015140000000140000801400004014008B590F8B3
:101524002130022B03D004238363012008BD026809
:10153400136823F00E0313600268136823F0010399
:10154400136003684B4A934243D9783A934221D0BB
:101554001432934220D0143293421FD01432934257
:101564001FD0143293421FD0143293421FD014322E
:1015740093421FD002F5627293421ED014329342FA
:101584001DD0143293421CD0143293421CD14FF418
:1015940080521BE0012219E0102217E04FF4807200
:1015A40014E04FF4805211E04FF480320EE04FF417
:1015B40080120BE04FF0807208E0012206E0102256
:1015C40004E04FF4807201E04FF480322A4B5A60F9
:1015D40042E02A4A934221D01432934220D014325A
:1015E40093421FD0143293421FD0143293421FD01F
:1015F400143293421FD0143293421FD002F5627208
:1016040093421ED0143293421DD0143293421CD004
:10161400143293421CD14FF480521BE0012219E092
:10162400102217E04FF4807214E04FF4805211E05E
:101634004FF480320EE04FF480120BE04FF08072D2
:1016440008E0012206E0102204E04FF4807201E079
:101654004FF480320A4B5A60012380F82130002372
:1016640080F82030436B13B19847002008BD002058
:1016740008BD00BF80000240000402400800024090
:1016840000000240074AD36823F4E0631B041B0CE8
:10169400000200F4E060184340F0BF6040F4003002
:1016A400D060704700ED00E030B4164BDB68C3F344
:1016B4000223C3F10704042C28BF04241D1D062D96
:1016C40001D9DD1E00E00025012303FA04F4013CE6
:1016D4002140A940AB40013B1A400A43002808DBE3
:1016E4001201D2B200F1604000F5614080F800239D
:1016F40005E000F00F001201D2B2034B1A5430BCC3
:10170400704700BF00ED00E014ED00E0002808DBA6
:10171400420900F01F00012303FA00F0014B43F8D3
:101724002200704700E100E00138B0F1807F0AD266
:10173400064B5860F021064A82F823100020986076
:1017440007221A6070470120704700BF10E000E0D4
:1017540000ED00E00F4B1A6842F001021A6059686C
:101764000D4A0A405A601A6822F0847222F48032C8
:101774001A601A6822F480221A605A6822F4FE025F
:101784005A604FF41F029A604FF00062034B9A6054
:10179400704700BF001002400000FFF800ED00E0B9
:1017A400002103E00B4B5B58435004310A480B4BB8
:1017B40042189A42F6D30A4A02E0002342F8043B54
:1017C400084B9A42F9D3FFF7C5FF00F00FF8FEF774
:1017D4005FFD704798180008000000206401002095
:1017E400640100200C150020FEE700000E4B70B5CC
:1017F4001E460E4C0025E41AA410A54204D056F847
:10180400253098470135F8E700F01EF8084B094CDD
:101814001E46E41AA4100025A54204D056F825302B
:1018240098470135F8E770BD901800089018000833
:10183400901800089418000803460244934202D00A
:1018440003F8011BFAE77047F8B500BFF8BC08BC01
:101854009E467047F8B500BFF8BC08BC9E4670476A
:1018640002030405060708090A0B0C0D0E0F1010DD
:101874000102000000000000000000000102030457
:0C18840006070809000000000102030430
:041890000902000841
:04189400E501000862
:101898000038014000C20100000000000000000004
:1018A800000000000C000000000000000000000024
:1018B8000000000000000000000000000000000020
:1018C8000000000000000000000000000000000010
:1018D8000044004000C201000000000000000000B9
:1018E800000000000C0000000000000000000000E4
:1018F80000000000000000000000000000000000E0
:1019080000000000000000000000000000000000CF
:101918000048004000C20100000000000000000074
:10192800000000000C0000000000000000000000A3
:10193800000000000000000000000000000000009F
:10194800000000000000000000000000000000008F
:10195800004C004000C20100000000000000000030
:10196800000000000C000000000000000000000063
:10197800000000000000000000000000000000005F
:10198800000000000000000000000000000000004F
:101998000050004000C201000000000000000000EC
:1019A800000000000C000000000000000000000023
:1019B800000000000000000000000000000000001F
:1019C800000000000000000000000000000000000F
:1019D800C00000200001002000000020400000207E
:1019E800800000200000000010000000010000003E
:0419F8000024F400D3
:04000005080017A533
:00000001FF
