:020000040800F2
:10000000000001208918000865060008690600083C
:100010006D06000871060008750600080000000063
:100020000000000000000000000000007906000849
:100030007D06000800000000810600088506000813
:10004000D1180008D1180008D1180008D1180008EC
:10005000D1180008D1180008D1180008D1180008DC
:10006000D1180008D1180008D1180008D1180008CC
:10007000D1180008D1180008D1180008D1180008BC
:10008000D1180008D1180008D1180008D1180008AC
:10009000D1180008D1180008D1180008D11800089C
:1000A000D1180008D1180008D1180008D11800088C
:1000B000D1180008D1180008D1180008D11800087C
:1000C000D1180008D1180008D1180008D11800086C
:1000D000D11800088D060008AD060008B10600081A
:1000E000D1180008D1180008D1180008D11800084C
:1000F000D1180008D1180008D1180008D11800083C
:10010000D1180008D1180008D1180008D11800082B
:10011000B5060008B9060008D1180008D118000873
:10012000D1180008D1180008D1180008D11800080B
:1001300000000000000000000000000000000000BF
:1001400000000000000000000000000000000000AF
:10015000000000000000000000000000000000009F
:10016000000000000000000000000000000000008F
:10017000000000000000000000000000000000007F
:10018000000000000000000000000000000000006F
:10019000000000000000000000000000000000005F
:1001A000000000000000000000000000000000004F
:1001B000000000000000000000000000000000003F
:1001C000000000000000000000000000000000002F
:1001D000000000000000000000000000000000001F
:0401E0005FF8E0F1F3
:1001E40010B5054C237833B9044B13B10448AFF36D
:1001F40000800123237010BDBC000020000000001B
:1002040068220008084B10B51BB108490848AFF331
:1002140000800848036803B910BD074B002BFBD0CE
:10022400BDE81040184700BF00000000C0000020D7
:1002340068220008BC0000200000000030B591B026
:100244002822002106A801F069FB002401940294ED
:10025400039404940594012206924FF48033079387
:100264000A9202250D950E934FF4E0130F9306A8FE
:1002740000F09EFD0F230193029503944FF48063D5
:1002840004930594294601A800F0E4FF11B030BDA1
:1002940008B500F03FFDFFF7D1FF00F00FF800F0C4
:1002A40087F9044801F09CFB4FF47A7000F056FD86
:1002B400F7E700BF94220008704700BF84B0134BD7
:1002C4009A6942F004029A619A6902F00402009267
:1002D400009A9A6942F008029A619A6902F0080247
:1002E4000192019A9A6942F010029A619A6902F0A5
:1002F40010020292029A9A6942F020029A619B6962
:1003040003F020030393039B04B0704700100240E2
:1003140030B591B000230C930D930E930F930368A3
:10032400874A934231D1874BDA6942F40022DA6179
:10033400DA6902F400220192019A9A6942F01002E9
:100344009A619B6903F010030293029B4FF480634C
:100354000C9302230D9303230F937B4D0CA9284682
:1003640001F056F84FF400630C9300240D940E949E
:100374000CA9284601F04CF822462146342001F00D
:1003840005FA342001F034FAD7E0704A934238D1A8
:100394006C4BDA6942F48012DA61DA6902F4801291
:1003A4000392039A9A6942F010029A619A6902F0E0
:1003B40010020492049A9A6942F020029A619B699D
:1003C40003F020030593059B4FF480530C93022301
:1003D4000D9303230F930CA95B4801F019F8042330
:1003E4000C9300240D940E940CA9594801F010F8B4
:1003F40022462146352001F0C9F9352001F0F8F9EB
:100404009BE0544A934231D14E4B9A6942F4804264
:100414009A619A6902F480420692069A9A6942F0B5
:1004240004029A619B6903F004030793079B4FF44A
:1004340000730C9302230D9303230F93464D0CA9D1
:10044400284600F0E5FF4FF480630C9300240D94DC
:100454000E940CA9284600F0DBFF224621462520F5
:1004640001F094F9252001F0C3F966E03B4A934278
:100474002FD1344BDA6942F40032DA61DA6902F4DA
:1004840000320892089A9A6942F004029A619B69C0
:1004940003F004030993099B04230C9302230D9393
:1004A40003230F932C4D0CA9284600F0B1FF082319
:1004B4000C9300240D940E940CA9284600F0A8FF78
:1004C40022462146262001F061F9262001F090F908
:1004D40033E0234A934230D11A4BDA6942F4802242
:1004E400DA61DA6902F480220A920A9A9A6942F07D
:1004F40008029A619B6903F008030B930B9B4FF46A
:1005040080630C9302230D9303230F93154D0CA9C1
:10051400284600F07DFF4FF400630C9300240D94F3
:100524000E940CA9284600F073FF2246214627208A
:1005340001F02CF9272001F05BF911B030BD00BFA8
:10054400004C0040001002400010014000500040E8
:1005540000140140003801400008014000440040FC
:1005640000480040000C014010B50446002383619C
:10057400C36102680C4B9A4204D10C4B83624FF462
:100584007A738385204600F097F910B1FFF794FE43
:1005940010BD2268D36843F01003D360A28DA16A12
:1005A400204600F02DFA10BD00380140E400002080
:1005B40010B5044C02E0FFF7D7FF0434206800288C
:1005C400F9D110BD4400002010B582B004460023C8
:1005D400019303681A6801925B680193019B00F020
:1005E40035FBA28DA16A204600F00AFA02B010BDC4
:1005F400704700BF38B5084B83420CD1074C4FF409
:100604007A752A460021204601F088F92A462146B7
:10061400014800F0F5F938BD00000020E400002096
:1006240000B583B002A941F8040D0A23012204484D
:10063400006800F073F9019803B05DF804FB00BF93
:100644004000002070B51646002405E04D1C0878D3
:10065400FFF7E6FF01342946B442F7DB304670BDAC
:10066400704700BFFEE700BFFEE700BFFEE700BF24
:10067400FEE700BF704700BF704700BF704700BF70
:1006840008B500F059FB08BD10B5064C204600F033
:1006940045FA2368DB6813F0100F02D02046FFF7F9
:1006A40093FF10BD00000020704700BF704700BFDB
:1006B400704700BF704700BF82B00E4B9A6942F08A
:1006C40001029A619A6902F001020092009ADA69C1
:1006D40042F08052DA61DB6903F080530193019B9D
:1006E400054A536823F0E06343F00073536002B09B
:1006F400704700BF00100240000001400268D36848
:1007040023F49073D3600268536923F001035361A7
:10071400202380F83A30704790F83930DBB2212B2F
:100724002BD18368B3F5805F0FD1036A02681B88FD
:10073400C3F30803536003691BB9036A02330362FA
:1007440009E0036A0133036205E00268036A591C85
:1007540001621B785360C38C9BB2013B9BB2C38480
:100764006BB90268D36823F08003D3600268D3684E
:1007740043F04003D36000207047022070470020FC
:10078400704700BF10B5044601680B6923F440525A
:10079400C36813430B6181680369194343691943AF
:1007A4000068C26822F4B05323F00C030B43C36007
:1007B40021684B6923F44072A36913434B61226897
:1007C400214B9A421FD100F013FE216800EB8000F8
:1007D40000EB800063689B00B0FBF3F01B4BA3FBB2
:1007E40000246409642202FB140212013232A3FBC6
:1007F40002235B0903F0F00202EB041403F00F037D
:1008040023448B6010BD00F0E3FD216800EB800001
:1008140000EB800063689B00B0FBF3F00B4BA3FB81
:1008240000246409642202FB140212013232A3FB85
:1008340002235B0903F0F00202EB041403F00F033C
:1008440023448B6010BD00BF003801401F85EB516D
:100854002DE9F04105460F4616469846069C1EE0D3
:10086400B4F1FF3F1BD02CB100F072FAC8EB0000CA
:10087400844214D22A68D36823F4D073D3602A68DC
:10088400536923F001035361202385F8393085F837
:100894003A30002385F838300320BDE8F0812B6816
:1008A4001B6837EA03030CBF01230023B342D7D0EC
:1008B4000020BDE8F08100BF68B310B5044690F88D
:1008C400393013F0FF0F04D1002380F83830FFF7DC
:1008D4001FFD242384F839302268D36823F400539D
:1008E400D3602046FFF74EFF2268136923F4904338
:1008F40013612268536923F02A0353612268D36881
:1009040043F40053D3600020E063202384F839309B
:1009140084F83A3010BD0120704700BF2DE9F04142
:1009240082B01E4690F83930DBB2202B56D10446F3
:100934000D469046002953D0002A53D090F8383001
:10094400012B51D0012380F838300023C3632123C5
:1009540080F8393000F0FCF90746A4F82480A4F8A4
:10096400268027E0E38C9BB2013B9BB2E384A3681F
:10097400B3F5805F12D100963B46002280212046C9
:10098400FFF766FF90BB22682B88C3F3080353600C
:1009940023690BB902350DE001350BE000963B46A7
:1009A400002280212046FFF753FF08BB23682A78E2
:1009B4005A600135E38C9BB2002BD3D100963B46A1
:1009C400002240212046FFF743FF034690B920222E
:1009D40084F83920002284F838200CE002230AE04D
:1009E400012308E0012306E0022304E0032302E0DC
:1009F400032300E00323184602B0BDE8F08100BFE2
:100A040090F83A30DBB2202B20D109B312B390F81E
:100A14003830012B20D081628285C2850023C363D4
:100A2400222280F83A2080F838300168CA6842F4FB
:100A34008072CA6001684A6942F001024A61016831
:100A4400CA6842F02002CA60184670470220704704
:100A5400012070470120704702207047704700BF93
:100A640008B50168CB6823F04003CB60202380F8ED
:100A74003930FFF7F3FF002008BD00BF08B590F838
:100A84003A30DBB2222B44D18368B3F5805F13D1B3
:100A9400826A036943B903685B68C3F3080313807C
:100AA400836A0233836218E003685B68DBB21380F5
:100AB400836A0133836210E0036933B9836A5A1C81
:100AC4008262026852681A7007E0826A531C836269
:100AD40003685B6803F07F031370C38D9BB2013B13
:100AE4009BB2C385BBB90268D36823F02003D360EB
:100AF4000268D36823F48073D3600268536923F0D7
:100B040001035361202380F83A30FFF771FD002080
:100B140008BD022008BD002008BD00BF10B5044672
:100B240002681368D168526913F00F0009D113F0F9
:100B3400200F06D011F0200F03D02046FFF79EFFB0
:100B440010BD002862D012F0010202D111F4907F8E
:100B54005CD013F0010F06D011F4807F03D0E06B5A
:100B640040F00100E06313F0040F04D01AB1E06B0D
:100B740040F00200E06313F0020F04D01AB1E06BFE
:100B840040F00400E06313F0080F04D01AB1E26BE4
:100B940042F00802E263E26B002A4AD013F0200F0D
:100BA40005D011F0200F02D02046FFF767FF23681D
:100BB4005B6903F04003E26B12F0080F00D1FBB154
:100BC4002046FFF79BFD23685A6912F0400F13D0AB
:100BD4005A6922F040025A61636B4BB1154A5A6359
:100BE400606B00F00DFD20B3606B436B984710BD44
:100BF4002046FFF7FFFC10BD2046FFF7FBFC10BDAD
:100C04002046FFF7F7FC0023E36310BD13F0800FC9
:100C140006D011F0800F03D02046FFF77DFD10BDF4
:100C240013F0400F05D011F0400F02D02046FFF71B
:100C340017FF10BD3D0C000808B5406A0023C385AA
:100C4400C384FFF7D7FC08BD704700BF10B5044646
:100C54000268D36823F49073D3600268536923F065
:100C64000103536103685A6912F0400F17D05A699F
:100C740022F040025A61436B4BB10D4A5A63406BF8
:100C840000F0BEFC90B1606B436B98470EE000230C
:100C9400C385202380F83A30FFF7D6FF06E000230F
:100CA400C385202380F83A30FFF7CEFF002010BD23
:100CB400B90C000808B5406A0023C385202380F8D6
:100CC4003A30FFF7C1FF08BD10B504460E4B187843
:100CD4004FF47A73B3FBF0F30C4A1068B0FBF3F0F3
:100CE40000F094FD58B90F2C0BD8002221464FF088
:100CF400FF3000F04BFD064B1C60002010BD0120AE
:100D040010BD012010BD00BF500000205400002081
:100D14004C00002008B5074A136843F01003136021
:100D2400032000F021FD0020FFF7CEFFFFF7C4FCF5
:100D3400002008BD00200240034A136803490978D3
:100D44000B441360704700BFCC0400205000002007
:100D5400014B1868704700BFCC04002038B5044626
:100D6400FFF7F6FF0546B4F1FF3F02D0044B1B78B2
:100D74001C44FFF7EDFF401B8442FAD838BD00BF86
:100D84005000002082B0084B1B68084AA2FB0323D2
:100D94005B0A00FB03F0019000BF019B5A1E019205
:100DA400002BF9D102B0704754000020D34D6210DB
:100DB400002800F0EC8170B582B00446036813F09B
:100DC400010F6BD0A84B5B6803F00C03042B0AD013
:100DD400A54B5B6803F00C03082B0DD1A24B5B6899
:100DE40013F4803F08D0A04B1B6813F4003F55D088
:100DF4006368002B52D1CCE16368B3F5803F05D121
:100E0400994A136843F48033136026E063B903F10D
:100E1400804303F504331A6822F480321A601A6896
:100E240022F480221A6018E0B3F5A02F0CD103F14C
:100E34008043A3F53C331A6842F480221A601A688E
:100E440042F480321A6008E0874B1A6822F4803238
:100E54001A601A6822F480221A6063687BB1FFF773
:100E640077FF054605E0FFF773FF401B642800F297
:100E740092817D4B1B6813F4003FF4D00EE0FFF722
:100E840067FF054605E0FFF763FF401B642800F297
:100E94008481754B1B6813F4003FF4D1236813F06D
:100EA400020F50D0704B5B6813F00C0F0AD06E4BDE
:100EB4005B6803F00C03082B16D16B4B5B6813F4CF
:100EC400803F11D1684B1B6813F0020F03D02369D4
:100ED400012B40F06481644A136823F0F8036169CC
:100EE40043EAC10313602EE02369D3B101225F4BAF
:100EF4001A60FFF72DFF054605E0FFF729FF401BA9
:100F0400022800F24E81584B1B6813F0020FF4D0F4
:100F1400554A136823F0F803616943EAC103136077
:100F240011E00022514B1A60FFF712FF054605E05D
:100F3400FFF70EFF401B022800F235814A4B1B6865
:100F440013F0020FF4D1236813F0080F29D0A3691A
:100F5400ABB10122464B1A60FFF7FAFE054605E0E5
:100F6400FFF7F6FE401B022800F21F813E4B5B6A2E
:100F740013F0020FF4D00120FFF704FF11E0002268
:100F84003B4B1A60FFF7E4FE054605E0FFF7E0FE81
:100F9400401B022800F20B81334B5B6A13F0020FF3
:100FA400F4D1236813F0040F00F08B802E4BDB691F
:100FB40013F0805F0BD12C4BDA6942F08052DA6176
:100FC400DB6903F080530193019B012500E00025B8
:100FD400284B1B6813F4807F13D1264A136843F40B
:100FE40080731360FFF7B4FE064605E0FFF7B0FE1A
:100FF400801B642800F2DD801E4B1B6813F4807F85
:10100400F4D0E368012B05D1174A136A43F00103B6
:10101400136222E063B903F1804303F504331A6ACF
:1010240022F001021A621A6A22F004021A6214E01F
:10103400052B09D10C4B1A6A42F004021A621A6A8F
:1010440042F001021A6208E0074B1A6A22F0010218
:101054001A621A6A22F004021A62E368D3B1FFF733
:1010640077FE064610E000BF001002400000424236
:101074008004424200700040FFF76AFE801B41F288
:101084008833984200F29780544B1B6A13F0020F86
:10109400F2D010E0FFF75CFE064607E0FFF758FECB
:1010A400801B41F28833984200F287804B4B1B6AC5
:1010B40013F0020FF2D125B1484AD36923F08053CB
:1010C400D361E369002B7AD0444A526802F00C02DF
:1010D400082A4CD0022B37D10022414B1A60FFF76B
:1010E40037FE054604E0FFF733FE401B022868D8AC
:1010F4003A4B1B6813F0007FF5D1236AB3F5803FA8
:1011040006D136494B6823F40032A36813434B607D
:101114003248436823F47411236A626A13430B430D
:10112400436001222E4B1A60FFF712FE044604E0CE
:10113400FFF70EFE001B022845D8284B1B6813F04E
:10114400007FF5D0002047E00022254B1A60FFF70E
:10115400FFFD044604E0FFF7FBFD001B022834D822
:101164001E4B1B6813F0007FF5D1002034E0012BE7
:101174002DD01A4B5B6803F48031226A914228D146
:1011840003F47013626A934225D0012024E0012005
:101194007047012020E003201EE003201CE0012012
:1011A4001AE0032018E0032016E0032014E00320D3
:1011B40012E0032010E003200EE003200CE00020E6
:1011C4000AE0032008E0032006E0032004E00120F5
:1011D40002E0012000E0002002B070BD00100240D7
:1011E4006000424230B486B0164D02AC286869688B
:1011F400AA68EB680FC42B8AADF80430124B5B6805
:1012040003F00C02082A19D1C3F3834206A90A4445
:1012140012F8100C13F4803F0CD00B4B5B68C3F333
:1012240040430B4413F8142C084B03FB00F0B0FBB1
:10123400F2F004E0064B03FB00F000E0034806B0C4
:1012440030BC7047802200080010024000127A006F
:1012540000093D00002800F09D8070B50446544B01
:101264001B6803F007038B420BD2514A136823F027
:1012740007030B431360136803F00703994240F01C
:101284008B80236813F0020F17D013F0040F04D0DF
:10129400484A536843F4E0635360236813F0080F2B
:1012A40004D0444A536843F460535360414843684C
:1012B40023F0F002A368134343600D46236813F040
:1012C400010F2ED06268012A05D13A4B1B6813F432
:1012D400003F0DD162E0022A05D1364B1B6813F0A2
:1012E400007F05D15CE0334B1B6813F0020F59D02B
:1012F40030494B6823F0030313434B60FFF728FD89
:10130400064606E0FFF724FD801B41F2883398422D
:101314004AD8284B5B6803F00C036268B3EB820F76
:10132400F0D1234B1B6803F007039D420AD2204AE5
:10133400136823F007032B431360136803F00703B8
:101344009D4233D1236813F0040F06D019494B682A
:1013540023F4E062E36813434B60236813F0080F3F
:1013640007D0144A536823F46053216943EAC10344
:101374005360FFF737FF0F4B5B68C3F303130E4A49
:10138400D35CD8400D4B18600D4B1868FFF79CFCDC
:10139400002070BD01207047012070BD012070BD88
:1013A400012070BD012070BD032070BD012070BDFF
:1013B4000020024000100240A02200085400002037
:1013C4004C000020014B1868704700BF54000020F7
:1013D40008B5FFF7F7FF044B5B68C3F30223034A26
:1013E400D35CD84008BD00BF00100240B022000802
:1013F40008B5FFF7E7FF044B5B68C3F3C223034A56
:10140400D35CD84008BD00BF00100240B0220008E1
:10141400F0B583B000263446DEE00122A24013403A
:101424009A4240F0D8804D68122D2DD00BD8022D51
:1014340027D003D85DB3012D1ED035E0032D30D065
:10144400112D1BD030E0684FBD4220D008D8A7F53D
:101454008017BD421BD007F58037BD4224D116E06A
:10146400624FBD4213D007F58037BD420FD0A7F5B8
:101474008017BD4218D10AE0CE6815E0CE68043664
:1014840012E0CE6808360FE0CE680C360CE08D68AA
:101494004DB1012D02D10261082605E04261082602
:1014A40002E0002600E00426FF2B01D8864601E076
:1014B40000F1040EFF2B01D8A20002E0A4F10802FF
:1014C4009200DEF800700F25954027EA050506FA1C
:1014D40002F22A43CEF800204A6812F0805F7AD0E4
:1014E400434A956945F001059561926902F001024C
:1014F4000192019AA708BD1C3E4A52F825E004F067
:10150400030292000F2595402EEA050E3A4DA8429B
:1015140015D005F58065A84213D005F58065A8426D
:1015240011D005F58065A8420FD005F58065A84265
:101534000DD005F58065A8420BD105250AE00025EC
:1015440008E0012506E0022504E0032502E0042565
:1015540000E0062505FA02F24EEA02020237254DA2
:1015640045F827204A6812F4803F05D005F58065C8
:101574002A681A432A6004E0204D2A6822EA0302FA
:101584002A604A6812F4003F04D01C4D6A681A436A
:101594006A6004E0194D6A6822EA03026A604A68D4
:1015A40012F4801F04D0154DAA681A43AA6004E0FF
:1015B400124DAA6822EA0302AA604A6812F4001FC4
:1015C40004D00E4DEA681343EB6004E00B4DEA6867
:1015D40022EA0303EB6001340B6833FA04F27FF46C
:1015E4001CAF03B0F0BD00BF00002110000031109B
:1015F40000100240000001400008014000040140C6
:1016040008B590F82130022B03D004238363012012
:1016140008BD0268136823F00E03136002681368A0
:1016240023F00103136003684B4A934243D9783A89
:10163400934221D01432934220D0143293421FD0CB
:10164400143293421FD0143293421FD01432934267
:101654001FD0143293421FD002F5627293421ED0FF
:10166400143293421DD0143293421CD0143293424C
:101674001CD14FF480521BE0012219E0102217E024
:101684004FF4807214E04FF4805211E04FF4803232
:101694000EE04FF480120BE04FF0807208E001225C
:1016A40006E0102204E04FF4807201E04FF480322F
:1016B4002A4B5A6042E02A4A934221D01432934280
:1016C40020D0143293421FD0143293421FD01432CC
:1016D40093421FD0143293421FD0143293421FD02E
:1016E40002F5627293421ED0143293421DD014321A
:1016F40093421CD0143293421CD14FF480521BE00D
:10170400012219E0102217E04FF4807214E04FF424
:10171400805211E04FF480320EE04FF480120BE05F
:101724004FF0807208E0012206E0102204E04FF43A
:10173400807201E04FF480320A4B5A60012380F832
:101744002130002380F82030436B13B198470020E8
:1017540008BD002008BD00BF800002400004024014
:101764000800024000000240074AD36823F4E06303
:101774001B041B0C000200F4E060184340F0BF603F
:1017840040F40030D060704700ED00E030B4164BF8
:10179400DB68C3F30223C3F10704042C28BF042429
:1017A4001D1D062D01D9DD1E00E00025012303FACD
:1017B40004F4013C2140A940AB40013B1A400A43D8
:1017C400002808DB1201D2B200F1604000F561404C
:1017D40080F8002305E000F00F001201D2B2034BA1
:1017E4001A5430BC704700BF00ED00E014ED00E077
:1017F400002808DB420900F01F00012303FA00F06F
:10180400014B43F82200704700E100E00138B0F1D9
:10181400807F0AD2064B5860F021064A82F82310D2
:101824000020986007221A6070470120704700BFAB
:1018340010E000E000ED00E00F4B1A6842F00102F6
:101844001A6059680D4A0A405A601A6822F0847274
:1018540022F480321A601A6822F480221A605A68CC
:1018640022F4FE025A604FF41F029A604FF00062A5
:10187400034B9A60704700BF001002400000FFF85D
:1018840000ED00E0002103E00B4B5B5843500431B2
:101894000A480B4B42189A42F6D30A4A02E0002344
:1018A40042F8043B084B9A42F9D3FFF7C5FF00F016
:1018B4000FF8FEF7EDFC7047242300080000002019
:1018C400BC000020BC000020D4040020FEE700007F
:1018D4000E4B70B51E460E4C0025E41AA410A5420A
:1018E40004D056F8253098470135F8E700F0BAFCE3
:1018F400084B094C1E46E41AA4100025A54204D046
:1019040056F8253098470135F8E770BD1C230008C8
:101914001C2300081C23000820230008034602445B
:10192400934202D003F8011BFAE7704770B50E46E4
:10193400054618B183690BB900F00CFAAB69AC68C1
:1019440013B9284600F006FA224B9C4201D16C6878
:1019540008E0214B9C4201D1AC6803E01F4B9C4240
:1019640008BFEC68A3891B0701D523693BB921464D
:10197400284600F091F810B14FF0FF3070BD013EE1
:10198400A36816F8011F013BA36091B1002B04DA90
:10199400A269934206DB0A2904D023685A1C2260F8
:1019A4001970EDE72246284600F022F80130E7D10D
:1019B400E2E7002B08DA22460A21284600F018F84C
:1019C4000130D9D00A2070BD23680A205A1C226035
:1019D400187070BDBC220008DC220008FC2200083C
:1019E400024B01461868FFF7A1BF00BFB8000020F2
:1019F400F8B50F461446054618B183690BB900F0D3
:101A0400A9F9224B9C4201D16C6808E0204B9C420E
:101A140001D1AC6803E01F4B9C4208BFEC68A3698A
:101A2400A360A3891A0709D523693BB123682069F8
:101A3400FEB2181A636998420FDB08E02146284673
:101A440000F02AF80028F1D04FF0FF361BE02146C1
:101A5400284600F015F90028F6D1A3680130013BAF
:101A6400A36023685A1C22601F706369984204D0E3
:101A7400A389DB0707D50A2E05D12146284600F0A5
:101A8400FFF80028E0D13046F8BD00BFBC220008B2
:101A9400DC220008FC220008324B70B51D680646A3
:101AA4000C4625B1AB6913B9284600F053F92E4B07
:101AB4009C4201D16C6808E02C4B9C4201D1AC687B
:101AC40003E02B4B9C4208BFEC68B4F90C309AB28B
:101AD40015071DD4D00602D4092232603AE051071A
:101AE40012D5616B41B104F14403994202D03046EE
:101AF40000F01AFA00236363A38923F02403A3816B
:101B04000023636023692360A38943F00803A3814E
:101B140023694BB9A38903F42073B3F5007F03D081
:101B24002146304600F0C4F9A28912F0010305D021
:101B34000023A36063695B42A36103E0920758BF7B
:101B44006369A36023695BB9B4F90C3003F08000C6
:101B540080B230B143F04003A3814FF0FF3070BD39
:101B6400002070BDB8000020BC220008DC22000860
:101B7400FC2200088A892DE9F041054610070C462D
:101B840059D44B68002B02DC0B6C002B17DDE66A82
:101B9400AEB102F48052002392B22F682B600AB1D6
:101BA400606D15E0216A01232846B047411C0FD11E
:101BB4002B686BB11D2B01D0162B03D12F60002095
:101BC400BDE8F081A38943F04003A381BDE8F0811F
:101BD400A3895A0705D56368C01A636B0BB1236CDC
:101BE400C01A00230246E66A216A2846B047431C0D
:101BF400A38906D129681D2939D8204ACA40D607A5
:101C040035D5002262602269D904226004D5421CC1
:101C140001D12B6803B96065616B2F600029CED0B8
:101C240004F14403994202D0284600F07DF90020D3
:101C34006063BDE8F0810F69002FC0D093070E6880
:101C44000CBF4B690023C7EB06080F608B6002E0F2
:101C54000744C0EB0808B8F1000FB0DD43463A462C
:101C6400216A2846A66AB0470028F1DCA38943F01C
:101C74004003A3814FF0FF30BDE8F0810100402014
:101C840038B50B6905460C46DBB118B183690BB94D
:101C940000F060F80C4B9C4201D16C6808E00B4BDF
:101CA4009C4201D1AC6803E0094B9C4208BFEC683C
:101CB400B4F90C302BB121462846BDE83840FFF773
:101CC40059BF002038BD00BFBC220008DC22000838
:101CD400FC220008014900F0A9B800BF851C0008D7
:101CE40010B504460023036043608360818143662A
:101CF400C281036143618361194608225C30FFF7A6
:101D04000DFE054B24626362044BA362044BE36241
:101D1400044B236310BD00BFA1200008C3200008AA
:101D2400FB2000081F21000870B568234D1E5D4389
:101D34000E4605F1740100F043F9044640B1002158
:101D440080E842000C30A06005F16802FFF7E6FD70
:101D5400204670BD836910B5044633BB8364C364F5
:101D64000365124B124A1B688262984204BF012326
:101D7400836100F01FF86060204600F01BF8A0604B
:101D8400204600F017F80022E06004216068FFF7A5
:101D9400A7FF01220921A068FFF7A2FF0222122156
:101DA400E068FFF79DFF0123A36110BDB82200087E
:101DB400D91C0008F8B51C4B07461E68B36913B953
:101DC4003046FFF7C7FF4836B4687368013B04D454
:101DD400B4F90C507DB16834F8E733680BB1366858
:101DE400F2E704213846FFF79FFF30600028F6D160
:101DF4000C233B60F8BD4FF6FF73E3810123A381FD
:101E040065662560A560656025616561A561082238
:101E1400294604F15C00FFF781FD6563A563A564B1
:101E2400E5642046F8BD00BFB82200082DE9F84358
:101E34008046894600F14804002694B1A568676885
:101E4400013F0CD4AB89012B07D9B5F90E3001330E
:101E540003D029464046C84706436835F0E724685E
:101E6400EBE73046BDE8F88370B50E46B1F90E10C5
:101E740090B0002914461D4606DA00232B60B3896E
:101E84001A060ED540230EE001AA00F06DF90028D1
:101E9400F3DB029A02F47042A2F500535A425A410B
:101EA4002A604FF480630020236010B070BD0000EE
:101EB4008B8973B59E0705460C4610D401AB6A4660
:101EC400FFF7D2FF00990646284600F079F868B972
:101ED400B4F90C309A0522D443F00203A38104F12F
:101EE4004703236023610123636118E00D4BAB6258
:101EF400A389206043F08003A381009B2061636178
:101F0400019B4BB1B4F90E10284600F03FF918B10B
:101F1400A38943F00103A381A0893043A08102B0C7
:101F240070BD00BFD91C000838B50546002944D04F
:101F340051F8043C0C1F002BB8BFE41800F048F91A
:101F44001E4A1368114613B96360146030E0A3425B
:101F54000DD92268A018834201BF18685B68121863
:101F6400226063600C6023E0A24203D813465A68DF
:101F7400002AF9D118681918A1420BD1216801442B
:101F840058188242196013D11068526801441960CC
:101F94005A600DE002D90C232B6009E02168601817
:101FA400824201BF106852680918216062605C6057
:101FB4002846BDE8384000F00CB938BDDC000020EC
:101FC40070B5CD1C25F0030508350C2D38BF0C2544
:101FD400002D064601DBA94202D90C23336046E0FA
:101FE40000F0F6F8234B1C681A462146A1B10B6891
:101FF4005B1B0ED40B2B03D90B60CC18CD501EE009
:102004008C420BBF63684B681360636018BF0C4657
:1020140015E00C464968E9E7174C23681BB93046BC
:1020240000F02CF820602946304600F027F8431CC5
:1020340018D0C41C24F00304A0420DD125603046FE
:1020440000F0C7F804F10B00231D20F00700C31AA9
:102054000ED05A42E25070BD211A304600F00EF8FC
:102064000130EBD10C233360304600F0B2F800208D
:1020740070BD00BFDC000020D800002038B5064C3D
:10208400002305460846236000F0DEF8431C02D115
:10209400236803B12B6038BDD004002010B50C4672
:1020A400B1F90E1000F096F80028ABBF636DA38958
:1020B4001B1823F48053ACBF6365A38110BD2DE9C5
:1020C400F0411F468B890546DB050C46164605D5AF
:1020D40002230022B1F90E1000F068F8A3893246F9
:1020E40023F48053A381B4F90E103B462846BDE87F
:1020F400F04100F017B810B50C46B1F90E1000F01D
:1021040055F8431CA38915BF606523F4805343F439
:102114008053A38118BFA38110BDB1F90E1000F044
:1021240013B8000038B5074C05460846114600228E
:1021340022601A46FEF786FA431C02D1236803B1D3
:102144002B6038BDD004002038B5064C002305466A
:102154000846236000F050F8431C02D1236803B101
:102164002B6038BDD004002038B5074C0023054649
:1021740008461146236000F047F8431C02D1236847
:1021840003B12B6038BD00BFD004002038B5064C25
:10219400002305460846236000F03EF8431C02D1A4
:1021A400236803B12B6038BDD004002038B5074C38
:1021B400054608461146002222601A4600F034F80B
:1021C400431C02D1236803B12B6038BDD004002026
:1021D4007047704738B5074C05460846114600223B
:1021E40022601A4600F028F8431C02D1236803B188
:1021F4002B6038BDD0040020024B58221A604FF0E7
:10220400FF307047D0040020024B58221A604FF070
:10221400FF307047D0040020024B58221A6000207F
:10222400704700BFD0040020024B58221A604FF0C0
:10223400FF307047D0040020024B58221A604FF040
:10224400FF307047D0040020044A05491368002B6E
:1022540008BF0B461844106018467047E000002081
:10226400D8040020F8B500BFF8BC08BC9E467047EF
:0C227400F8B500BFF8BC08BC9E467047DF
:1022800002030405060708090A0B0C0D0E0F1010B7
:1022900001020000636363636363636363000000C0
:1022A0000000000000000000010203040607080906
:1022B000000000000102030458000020000000009C
:1022C000000000000000000000000000000000000E
:1022D00000000000000000000000000000000000FE
:1022E00000000000000000000000000000000000EE
:1022F00000000000000000000000000000000000DE
:1023000000000000000000000000000000000000CD
:0C231000000000000000000000000000C1
:04231C0009020008AA
:04232000E5010008CB
:102324000038014000C2010000000000000000006D
:10233400000000000C00000000000000000000008D
:102344000000000000000000000000000000000089
:102354000000000000000000000000000000000079
:102364000000002000000020000000001000000019
:10237400010000000024F40000000000BC2200085A
:10238400DC220008FC22000800000000000000001D
:102394000000000000000000000000000000000039
:1023A4000000000000000000000000000000000029
:1023B4000000000000000000000000000000000019
:1023C4000000000000000000000000000000000009
:0C23D40000000000000000005800002085
:04000005080018894E
:00000001FF
